:1009F3004C696E655F636F756E7465723A002D2D79
:080A03002D636D0000000000EE
:10092600410013004100120041001500C102C1053B
:10093600C106C100C10141001400C104C103420047
:0309460017900007
:0A0A58007F96120A6C7F96020A7561
:0A0A6200E4FF120A6CE4FF020A75BB
:1009C100E4FF120A6C7F96120A757FD0120A0B7F20
:0909D10096120A6C7F96020A7569
:1009DA007F96120A6CE4FF120A757FD0120A0B7F07
:0909EA0096120A6C7F96020A7550
:10074B00E580540390000AF0E4FF120A6C7F9612C6
:10075B000A757FDC120A0B90000AE06007E58054F3
:10076B0003F080F37F96120A6CE4FF120A757FC8C0
:0D077B00120A0B7F96120A6C7F96120A7507
:01078800224E
:10078900E580540390000AF07F96120A6CE4FF1288
:100799000A757FC8120A0B90000AE06007E58054C9
:1007A90003F080F3E4FF120A6C7F96120A757F96B4
:0D07B900120A0B7F96120A6C7F96120A75C9
:0107C6002210
:1007C700900019EEF0A3EFF0A3ECF0A3EDF0E4FF37
:1007D700120A6C7F96120A75900019A3E0FF120A9D
:1007E7000B7F96120A6CE4FF120A7590001BA3E0B8
:0E07F700FF120A0B7F96120A6C7F96020A759B
:1008050090001DEEF0A3EFF0A3ECF0A3EDF07F96C2
:10081500120A6CE4FF120A7590001DA3E0FF120A8C
:100825000BE4FF120A6C7F96120A7590001FA3E075
:0E083500FF120A0B7F96120A6C7F96020A755C
:100A48003096079000167401F022E4900016F02208
:1008430012096B30041BE4FF120A6C7F96120A75BF
:10085300C28E900017E0FCA3E0FDECF58D8D8BD2EA
:100863008EE580540314600C14600C14600424039C
:0E087300700B800602074B020789120A5822FA
:10096B0030020FC202900012E0D394015004E4F065
:0E097B00C28C900012E0C394034002D203220B
:1005520078007C007D017BFF7A0A79017E007F0AA8
:100562001202F11208BC1206691204ED120A22D21A
:10057200AF120A48120A587F011209A77F02120914
:10058200A77FC8120A0B7BFF7A0979F37D017F01ED
:10059200120709900012E0FB7D077F011200667BC3
:1005A200017A0079007D017F021207091208438057
:0105B200FB4D
:10066900C2DEE5A254CF4420F5A2E4F5D875F20123
:1006790075F301F5F475DA4275DB4275DC42F5F97B
:10068900F5E975D902900000F0900000F0900000A3
:10069900F0900000E0FD7C00E4FF1208F4900000F7
:1006A900E0FD7C007F011208F4D2DE53951F4396CA
:0206B900E0223D
:100A0B007DA57C06ED1D70011C144C70F7EF1F705B
:060A1B00011E144E70EAFA
:010A210022B2
:1008F400EF700DC2DEC374FF9DF5EAF5FAD2DE2275
:10090400EFB4010DC2DEC374FF9DF5EBF5FBD2DE3F
:1009140022EFB4020CC2DEC374FF9DF5ECF5FCD2E9
:02092400DE22D1
:090A6C00EFFD7C007F010208F49B
:090A7500EFFD7C00E4FF0208F42F
:03000B0002094A9D
:10094A00C0E0C083C082C0D0900013E004F0E0C3CE
:10095A0094284004E4F0D202D0D0D082D083D0E0F0
:01096A00325A
:03001B000206BB1F
:1006BB00C0E0C0F0C083C082C0D075D000C000C005
:1006CB0001C002C003C004C005C006C007900015DE
:1006DB00E004F0E0B4050C7F96120A6C7F96120AC8
:1006EB0075C28ED007D006D005D004D003D002D06F
:0E06FB0001D000D0D0D082D083D0F0D0E03239
:0300630002000692
:0100060032C7
:1004ED00E490000AF0A3F0A304F0E4A3F0A3F0A3BA
:1004FD007490F0A3E4F0A304F0FB7A00790AE4FF12
:10050D00120086E490000AF0A3F0A304F0E4A3F037
:10051D00A304F0A37490F0A3E4F0A3F07B017A00A0
:10052D00790A7F0112008690000C7401F0A3F0A3EC
:10053D00F0A37470F0A3E4F0A3F07B017A00790AC4
:05054D007F02020086A0
:10008600AD07EDD3940240037F0122ED6003020128
:100096001AC28C900002120330B40104D2A9800265
:1000A600C2A9900001120330B40104D2B98002C281
:1000B600B9120317FED3940340037F0222E5895445
:1000C600FC4EF589900003120330FFB40103538EF2
:1000D6007FEF7003438E80EFB402054389048003EB
:1000E6005389FB900004120330B40105438F01804D
:1000F60003538FFE900005120373E5F0F58C900014
:1001060005120373F58A900007120330B40102D278
:100116008C7F0022ED640160030201A5C28E90006F
:1001260002120330B40104D2AB8002C2AB900001CC
:10013600120330B40104D2BB8002C2BB120317FE05
:10014600C3940340037F0222E58954CF4EF589907C
:100156000003120330FFB40103538EBFEF70034355
:100166008E40EFB4020543894080035389BF900057
:1001760004120330B40105438F028003538FFD90B0
:100186000005120373E5F0F58D900005120373F573
:100196008B900007120330B40102D28E7F0022ED4D
:1001A60064027074538EEF900002120330B401059E
:1001B60043AF04800353AFFB900003120330FED31A
:1001C600940240037F0222EEB40103538EFB90009B
:1001D600031203307003438E04900003120330B4FD
:1001E6000205438E088003538EF7900004120330F5
:1001F600B40105438F048003538FFB90000512035F
:1002060073FDACF0ECF5D68DD7900007120330B431
:0B0216000103438E107F00227F0222B4
:030003000208816F
:10088100C0E0C083C082C0D075D000C004C005C024
:01089100075F
:100892007D007C90900012E004F0E0B40102D204EA
:0B08A200C28CECF58CAF058F8AD28C65
:0F08AD00D007D005D004D0D0D082D083D0E03295
:03001300020007E1
:0100070032C6
:03005300020008A0
:0100080032C5
:03005B0002000997
:0100090032C4
:0300830002000A6E
:01000A0032C3
:1003AB00EFD3940440037F0122EF702D90000212D3
:1003BB000330B40104D2A88002C2A890000112033A
:1003CB0030B40104D2B88002C2B8120317B40104CE
:1003DB00D2888002C2887F0022EF6401702D9000CA
:1003EB0002120330B40104D2AA8002C2AA90000107
:1003FB00120330B40104D2BA8002C2BA120317B48A
:10040B000104D28A8002C28A7F0022EFB4021490C8
:10041B000002120330B40105438F108003538FEF9A
:10042B007F0022EFB40314900002120330B40105D5
:10043B00438F208003538FDF7F0022EFB40414908F
:10044B000002120330B40105438F408003538FBF6A
:06045B007F00227F022257
:100A220090000A7401F0A3F0A3F0FB7A00790AE4C3
:040A3200FF0203AB11
:100A3600E4FFFE30970B0FBF00010EBE13F5BF8813
:010A4600F2BD
:010A4700228C
:10001E00C2B58F900000000000000000000000003C
:10002E000000000000000000D2B60000000000003A
:10003E000000000000000000000000000000C2B63A
:04004E007590FF2288
:10060F00AD07C2B4D2B57590FF0000000000000026
:10061F0000000000000000000000000000D2B61231
:10062F000A36C2B6C2B5AF058F90000000000000B9
:10063F000000000000000000000000000000D2B623
:10064F00000000000000000000000000000000009B
:0A065F0000000000C2B67590FF22F3
:1005B300AD07C2B4D2B57590FF0000000000000083
:1005C30000000000000000000000000000D2B6128E
:1005D3000A36C2B6C2B5D2B4AF058F900000000090
:1005E3000000000000000000000000000000000008
:1005F300D2B6000000000000000000000000000070
:0C060300000000000000C2B67590FF224D
:1008BC00C2B6C2B4C2B57F64120A0B7F3012001EDE
:1008CC007F0A120A0B7F3012001E7F0A120A0B7F5E
:1008DC003812001E7F06120A0B7F0112060F7F06CC
:0808EC0012060F7F0C02060F3B
:10098900AC05AB07EBB40108EC144480FF12060F69
:0E099900EBB40209EC243F4480FF12060F224B
:1009A700EF6016D3940250117D01120989E4FC7F90
:0909B700201205B30CECB410F69B
:0109C0002214
:10006600AA03EF6015D394025010ED600DD39410DF
:0B0076005008120989AF021205B322E6
:1007090090000AEFF0A3EDF0A3EBF0A3EAF0A3E960
:10071900F090000CE0FBA3E0FAA3E0F9120317FB49
:10072900601F90000AE0FFA3E0FD120066E004F0FC
:10073900D39414500C90000DE475F00112035D8000
:02074900D022BC
:0300000002046196
:0C046100787FE4F6D8FD7581200204A825
:10022100E709F608DFFA8046E709F208DFFA803EBF
:1002310088828C83E709F0A3DFFA8032E309F608AC
:10024100DFFA8078E309F208DFFA807088828C8314
:10025100E309F0A3DFFA806489828A83E0A3F608C8
:10026100DFFA805889828A83E0A3F208DFFA804CA2
:1002710080D280FA80C680D4806980F28033801079
:1002810080A680EA809A80A880DA80E280CA8033E2
:1002910089828A83ECFAE493A3C8C582C8CCC5835A
:1002A100CCF0A3C8C582C8CCC583CCDFE9DEE7802A
:1002B1000D89828A83E493A3F608DFF9ECFAA9F0A9
:1002C100EDFB2289828A83ECFAE0A3C8C582C8CCFF
:1002D100C583CCF0A3C8C582C8CCC583CCDFEADE18
:1002E100E880DB89828A83E493A3F208DFF980CC7A
:1002F10088F0EF60010E4E60C388F0ED2402B40473
:100301000050B9F582EB2402B4040050AF23234519
:06031100822390027173CB
:10031700BB010689828A83E0225002E722BBFE02E4
:09032700E32289828A83E4932217
:10033000BB010CE58229F582E5833AF583E0225082
:1003400006E92582F8E622BBFE06E92582F8E222CC
:0D035000E58229F582E5833AF583E49322E6
:10035D00C5F0F8A3E028F0C5F0F8E582158270022B
:06036D001583E038F022C8
:10037300BB0110E58229F582E5833AF583E0F5F0C8
:10038300A3E0225009E92582F886F008E622BBFEA5
:100393000AE92582F8E2F5F008E222E5832AF583EB
:0803A300E993F5F0A3E99322B0
:10046D00020552E493A3F8E493A34003F68001F24E
:10047D0008DFF48029E493A3F85407240CC8C33390
:10048D00C4540F4420C8834004F456800146F6DF5F
:10049D00E4800B0102040810204080900926E47EC0
:1004AD00019360BCA3FF543F30E509541FFEE49354
:1004BD00A360010ECF54C025E060A840B8E493A31B
:1004CD00FAE493A3F8E493A3C8C582C8CAC583CA46
:1004DD00F0A3C8C582C8CAC583CADFE9DEE780BEFE
:0109490000AD
:00000001FF
