:1008BB004C696E655F636F756E7465723A006D6F30
:0E08CB0064653A002D2D2D636D0000000000C5
:10006600410013004100120041001500C102C10306
:0A007600C104C100C10141001400E3
:0A09D3007F961209E77F960209F0F3
:0A09DD00E4FF1209E7E4FF0209F04D
:10092C00E4FF1209E77F961209F07FD012095E7F6F
:09093C00961209E77F960209F00A
:100945007F961209E7E4FF1209F07FD012095E7F56
:09095500961209E77F960209F0F1
:10070E00E580540390000AF0E4FF1209E77F961289
:10071E0009F07FDC12095E90000AE064F06007E5E4
:10072E00805403F080F17F961209E7E4FF1209F07E
:0F073E007FC812095E7F961209E77F961209F0B5
:01074D002289
:10074E00E580540390000AF07F961209E7E4FF1249
:10075E0009F07FC812095E90000AE064F06007E5B8
:10076E00805403F080F1E4FF1209E77F961209F03E
:0F077E007F9612095E7F961209E77F961209F0A7
:01078D002249
:10078E00900017EEF0A3EFF0A3ECF0A3EDF0E4FF72
:10079E001209E77F961209F0900017A3E0FF1209E5
:1007AE005E7F961209E7E4FF1209F0900019A3E0AC
:0E07BE00FF12095E7F961209E77F960209F08E
:1007CC0090001BEEF0A3EFF0A3ECF0A3EDF07F96FE
:1007DC001209E7E4FF1209F090001BA3E0FF1209D5
:1007EC005EE4FF1209E77F961209F090001DA3E06A
:0E07FC00FF12095E7F961209E77F960209F050
:1009C3003096079000167401F022E4900016F0228E
:10089D00E580540314600C14600E2402700D1209CF
:0E08AD00D3800812070E800312074E02099E28
:10099E0030020FC202900012E0D394015004E4F032
:0309AE00C28C22D6
:1004ED0078007C007D017BFF7A0879CF7E007F0A42
:1004FD001202F112080A12067A12055B12098AD24B
:10050D00AF1209C31209D37F011209127F0212091A
:10051D00127BFF7A0879BB7D017F011206CC90001A
:10052D0012E0FB7D077F011208F77B017A0079004D
:10053D007D017F021206CC7BFF7A0879C97D077F8A
:0E054D00021206CC7FC812095E12089D80FBC8
:10067A00C2DEE5A254CF4420F5A2E4F5D875F20112
:10068A0075F301F5F475DA4275DB4275DC42F5F96A
:10069A00F5E975D902900000F0900000F090000092
:1006AA00F0900000E0FD7C00E4FF12084290000098
:1006BA00E0FD7C007F01120842D2DE53951F43966B
:0206CA00E0222C
:10095E007DA57C06ED1D70011C144C70F7EF1F7009
:06096E00011E144E70EAA8
:010974002260
:10084200EF700DC2DEC374FF9DF5EAF5FAD2DE2227
:10085200EFB4010DC2DEC374FF9DF5EBF5FBD2DEF2
:1008620022EFB4020CC2DEC374FF9DF5ECF5FCD29C
:02087200DE2284
:0909E700EFFD7C007F01020842D3
:0909F000EFFD7C00E4FF02084267
:03000B0002087474
:10087400C0E0C083C082C0D0900013E004F0E0C3A5
:100884009464400CE004F0E094644004E4F0D20288
:09089400D0D0D082D083D0E03234
:03001B00020006DA
:0100060032C7
:0300630002000791
:0100070032C6
:10055B00E490000AF0A3F0A304F0E4A3F0A3F0A34B
:10056B0074FFF0A37423F0A37401F0FB7A00790AF3
:10057B00E4FF120086E490000AF0A3F0A304F0E479
:10058B00A3F0A304F0A374A9F0A3749AF0E4A3F06E
:10059B007B017A00790A7F0112008690000C7401AE
:1005AB00F0A3F0A3F0A37470F0A3E4F0A3F07B012D
:0905BB007A00790A7F0202008631
:10008600AD07EDD3940240037F0122ED6003020128
:100096001AC28C900002120330B40104D2A9800265
:1000A600C2A9900001120330B40104D2B98002C281
:1000B600B9120317FED3940340037F0222E5895445
:1000C600FC4EF589900003120330FFB40103538EF2
:1000D6007FEF7003438E80EFB402054389048003EB
:1000E6005389FB900004120330B40105438F01804D
:1000F60003538FFE900005120373E5F0F58C900014
:1001060005120373F58A900007120330B40102D278
:100116008C7F0022ED640160030201A5C28E90006F
:1001260002120330B40104D2AB8002C2AB900001CC
:10013600120330B40104D2BB8002C2BB120317FE05
:10014600C3940340037F0222E58954CF4EF589907C
:100156000003120330FFB40103538EBFEF70034355
:100166008E40EFB4020543894080035389BF900057
:1001760004120330B40105438F028003538FFD90B0
:100186000005120373E5F0F58D900005120373F573
:100196008B900007120330B40102D28E7F0022ED4D
:1001A60064027074538EEF900002120330B401059E
:1001B60043AF04800353AFFB900003120330FED31A
:1001C600940240037F0222EEB40103538EFB90009B
:1001D600031203307003438E04900003120330B4FD
:1001E6000205438E088003538EF7900004120330F5
:1001F600B40105438F048003538FFB90000512035F
:1002060073FDACF0ECF5D68DD7900007120330B431
:0B0216000103438E107F00227F0222B4
:030003000209757A
:10097500C0E0C083C082900012E004F0D28CD08227
:05098500D083D0E03238
:03001300020008E0
:0100080032C5
:030053000200099F
:0100090032C4
:03005B0002000A96
:01000A0032C3
:0300830002000E6A
:01000E0032BF
:1003AB00EFD3940440037F0122EF702D90000212D3
:1003BB000330B40104D2A88002C2A890000112033A
:1003CB0030B40104D2B88002C2B8120317B40104CE
:1003DB00D2888002C2887F0022EF6401702D9000CA
:1003EB0002120330B40104D2AA8002C2AA90000107
:1003FB00120330B40104D2BA8002C2BA120317B48A
:10040B000104D28A8002C28A7F0022EFB4021490C8
:10041B000002120330B40105438F108003538FEF9A
:10042B007F0022EFB40314900002120330B40105D5
:10043B00438F208003538FDF7F0022EFB40414908F
:10044B000002120330B40105438F408003538FBF6A
:06045B007F00227F022257
:10098A0090000A7401F0A3F0A3F0FB7A00790AE45C
:04099A00FF0203ABAA
:1009B100E4FFFE30970B0FBF00010EBE13F5BF8899
:0109C100F243
:0109C2002212
:10001E00C2B58F900000000000000000000000003C
:10002E000000000000000000D2B60000000000003A
:10003E000000000000000000000000000000C2B63A
:04004E007590FF2288
:10062000AD07C2B4D2B57590FF0000000000000015
:1006300000000000000000000000000000D2B61220
:1006400009B1C2B6C2B5AF058F900000000000002E
:100650000000000000000000000000000000D2B612
:10066000000000000000000000000000000000008A
:0A06700000000000C2B67590FF22E2
:1005C400AD07C2B4D2B57590FF0000000000000072
:1005D40000000000000000000000000000D2B6127D
:1005E40009B1C2B6C2B5D2B4AF058F900000000005
:1005F40000000000000000000000000000000000F7
:10060400D2B600000000000000000000000000005E
:0C061400000000000000C2B67590FF223C
:10080A00C2B6C2B4C2B57F6412095E7F3012001E3E
:10081A007F0A12095E7F3012001E7F0A12095E7F6C
:10082A003812001E7F0612095E7F011206207F061B
:08083A001206207F0C020620CB
:1008D900AC05AB07EBB40108EC144480FF12062009
:0E08E900EBB40209EC243F4480FF12062022EB
:10091200EF6016D3940250117D011208D9E4FC7FD6
:09092200201205C40CECB410F61F
:01092B0022A9
:1008F700AA03EF6015D394025010ED600DD3941046
:0B09070050081208D9AF021205C422EC
:1006CC0090000AEFF0A3EDF0A3EBF0A3EAF0A3E99E
:1006DC00F090000CE0FBA3E0FAA3E0F9120317FB87
:1006EC00601F90000AE0FFA3E0FD1208F7E004F0A1
:1006FC00D39414500C90000DE475F00112035D803E
:02070C00D022F9
:0300000002046196
:0C046100787FE4F6D8FD7581200204A825
:10022100E709F608DFFA8046E709F208DFFA803EBF
:1002310088828C83E709F0A3DFFA8032E309F608AC
:10024100DFFA8078E309F208DFFA807088828C8314
:10025100E309F0A3DFFA806489828A83E0A3F608C8
:10026100DFFA805889828A83E0A3F208DFFA804CA2
:1002710080D280FA80C680D4806980F28033801079
:1002810080A680EA809A80A880DA80E280CA8033E2
:1002910089828A83ECFAE493A3C8C582C8CCC5835A
:1002A100CCF0A3C8C582C8CCC583CCDFE9DEE7802A
:1002B1000D89828A83E493A3F608DFF9ECFAA9F0A9
:1002C100EDFB2289828A83ECFAE0A3C8C582C8CCFF
:1002D100C583CCF0A3C8C582C8CCC583CCDFEADE18
:1002E100E880DB89828A83E493A3F208DFF980CC7A
:1002F10088F0EF60010E4E60C388F0ED2402B40473
:100301000050B9F582EB2402B4040050AF23234519
:06031100822390027173CB
:10031700BB010689828A83E0225002E722BBFE02E4
:09032700E32289828A83E4932217
:10033000BB010CE58229F582E5833AF583E0225082
:1003400006E92582F8E622BBFE06E92582F8E222CC
:0D035000E58229F582E5833AF583E49322E6
:10035D00C5F0F8A3E028F0C5F0F8E582158270022B
:06036D001583E038F022C8
:10037300BB0110E58229F582E5833AF583E0F5F0C8
:10038300A3E0225009E92582F886F008E622BBFEA5
:100393000AE92582F8E2F5F008E222E5832AF583EB
:0803A300E993F5F0A3E99322B0
:10046D000204EDE493A3F8E493A34003F68001F2B4
:10047D0008DFF48029E493A3F85407240CC8C33390
:10048D00C4540F4420C8834004F456800146F6DF5F
:10049D00E4800B0102040810204080900066E47E89
:1004AD00019360BCA3FF543F30E509541FFEE49354
:1004BD00A360010ECF54C025E060A840B8E493A31B
:1004CD00FAE493A3F8E493A3C8C582C8CAC583CA46
:1004DD00F0A3C8C582C8CAC583CADFE9DEE780BEFE
:01008000007F
:00000001FF
