:1005F600410009004100080041000B00C102C1038F
:0A060600C104C100C10141000A0057
:0A06A6007F961206BA7F960206C383
:0A06B000E4FF1206BAE4FF0206C3DD
:10061100E4FF1206BA7F961206C37FD01206437F0B
:09062100961206BA7F960206C388
:10062A007F961206BAE4FF1206C37FD01206437FF2
:09063A00961206BA7F960206C36F
:10049C00E5805403900000F0E4FF1206BA7F961238
:1004AC0006C37FDC120643900000E064F06007E5B1
:1004BC00805403F080F17F961206BAE4FF1206C353
:0F04CC007FC81206437F961206BA7F961206C3A8
:0104DB0022FE
:1004DC00E5805403900000F07F961206BAE4FF12F8
:1004EC0006C37FC8120643900000E064F06007E585
:1004FC00805403F080F1E4FF1206BA7F961206C313
:0F050C007F961206437F961206BA7F961206C399
:01051B0022BD
:10051C0090000DEEF0A3EFF0A3ECF0A3EDF0E4FFF0
:10052C001206BA7F961206C390000DA3E0FF1206C6
:10053C00437F961206BAE4FF1206C390000FA3E0A5
:0E054C00FF1206437F961206BA7F960206C380
:10055A00900011EEF0A3EFF0A3ECF0A3EDF07F967C
:10056A001206BAE4FF1206C3900011A3E0FF1206B6
:10057A0043E4FF1206BA7F961206C3900013A3E063
:0E058A00FF1206437F961206BA7F960206C342
:1006960030960790000C7401F022E490000CF022D2
:1005D800E580540314600C14600E2402700D12069A
:0E05E800A6800812049C80031204DC02068325
:1006830030020FC202900008E0D394015004E4F05A
:03069300C28E22F2
:1000660012044A1203E112066FD2AF120696120666
:0B007600A67FC81206431205D880FBCD
:10044A00C2DEE5A254CF4420F5A2E4F5D875F20144
:10045A0075F301F5F475DA4275DB4275DC42F5F99C
:10046A00F5E975D902900000F0900000F0900000C4
:10047A00F0900000E0FD7C00E4FF12001E900000F6
:10048A00E0FD7C007F0112001ED2DE53951F4396C9
:02049A00E0225E
:100643007DA57C06ED1D70011C144C70F7EF1F7027
:06065300011E144E70EAC6
:01065900227E
:10001E00EF700DC2DEC374FF9DF5EAF5FAD2DE2253
:10002E00EFB4010DC2DEC374FF9DF5EBF5FBD2DE1E
:10003E0022EFB4020CC2DEC374FF9DF5ECF5FCD2C8
:02004E00DE22B0
:0906BA00EFFD7C007F0102001E2F
:0906C300EFFD7C00E4FF02001EC3
:03000B000205B932
:1005B900C0E0C083C082C0D0900009E004F0E0C36D
:0F05C90094644002E4F0D0D0D082D083D0E032EE
:03001B0002059843
:10059800C0E0C083C082C0D090000BE004F0E0C38C
:1005A80094644004E4F0D202D0D0D082D083D0E06A
:0105B8003210
:0300630002000692
:0100060032C7
:1003E100E4900000F0A3F0A304F0E4A3F0A3F0A3D1
:1003F10074FFF0A37423F0A37401F0FB7A00790079
:10040100E4FF120086E4900000F0A3F0A304F0E4FE
:10041100A3F0A304F0A374A9F0A3749AF0E4A3F0E9
:100421007B017A0079007F0112008690000274013D
:10043100F0A3F0A3F0A37470F0A3E4F0A3F07B01A8
:090441007A0079007F02020086B6
:10008600AD07EDD3940240037F0122ED6003020128
:100096001AC28C90000212037CB40104D2A9800219
:1000A600C2A990000112037CB40104D2B98002C235
:1000B600B9120363FED3940340037F0222E58954F9
:1000C600FC4EF58990000312037CFFB40103538EA6
:1000D6007FEF7003438E80EFB402054389048003EB
:1000E6005389FB90000412037CB40105438F018001
:1000F60003538FFE9000051203A9E5F0F58C9000DE
:10010600051203A9F58A90000712037CB40102D2F6
:100116008C7F0022ED640160030201A5C28E90006F
:100126000212037CB40104D2AB8002C2AB90000180
:1001360012037CB40104D2BB8002C2BB120363FE6D
:10014600C3940340037F0222E58954CF4EF589907C
:10015600000312037CFFB40103538EBFEF70034309
:100166008E40EFB4020543894080035389BF900057
:100176000412037CB40105438F028003538FFD9064
:1001860000051203A9E5F0F58D9000051203A9F507
:100196008B90000712037CB40102D28E7F0022ED01
:1001A60064027074538EEF90000212037CB4010552
:1001B60043AF04800353AFFB90000312037CFED3CE
:1001C600940240037F0222EEB40103538EFB90009B
:1001D6000312037C7003438E0490000312037CB465
:1001E6000205438E088003538EF790000412037CA9
:1001F600B40105438F048003538FFB90000512035F
:10020600A9FDACF0ECF5D68DD790000712037CB4AF
:0B0216000103438E107F00227F0222B4
:0300030002065A98
:10065A00C0E0C083C082900008E004F0D28ED0824D
:05066A00D083D0E03256
:03001300020007E1
:0100070032C6
:03005300020008A0
:0100080032C5
:03005B0002000997
:0100090032C4
:0300830002000A6E
:01000A0032C3
:10022100EFD3940440037F0122EF702D900002125E
:10023100037CB40104D2A88002C2A8900001120379
:100241007CB40104D2B88002C2B8120363B40104C1
:10025100D2888002C2887F0022EF6401702D900055
:100261000212037CB40104D2AA8002C2AA90000146
:1002710012037CB40104D2BA8002C2BA120363B47D
:100281000104D28A8002C28A7F0022EFB402149054
:10029100000212037CB40105438F108003538FEFDA
:1002A1007F0022EFB4031490000212037CB4010515
:1002B100438F208003538FDF7F0022EFB40414901B
:1002C100000212037CB40105438F408003538FBFAA
:0602D1007F00227F0222E3
:10066F009000007401F0A3F0A3F0FB7A007900E48E
:04067F00FF02022153
:030000000202D722
:0C02D700787FE4F6D8FD75812002031E3C
:10036300BB010689828A83E0225002E722BBFE0298
:09037300E32289828A83E49322CB
:10037C00BB010CE58229F582E5833AF583E0225036
:10038C0006E92582F8E622BBFE06E92582F8E22280
:0D039C00E58229F582E5833AF583E493229A
:1003A900BB0110E58229F582E5833AF583E0F5F092
:1003B900A3E0225009E92582F886F008E622BBFE6F
:1003C9000AE92582F8E2F5F008E222E5832AF583B5
:0803D900E993F5F0A3E993227A
:1002E300020066E493A3F8E493A34003F68001F2CB
:1002F30008DFF48029E493A3F85407240CC8C3331C
:10030300C4540F4420C8834004F456800146F6DFEA
:10031300E4800B01020408102040809005F6E47E7F
:10032300019360BCA3FF543F30E509541FFEE493DF
:10033300A360010ECF54C025E060A840B8E493A3A6
:10034300FAE493A3F8E493A3C8C582C8CAC583CAD1
:10035300F0A3C8C582C8CAC583CADFE9DEE780BE89
:0106100000E9
:00000001FF
