:1005440041001000C102C103C100C10141001100FA
:0A000E007F9612056F7F96020578B9
:0A056500E4FF12056FE4FF020578C1
:1004D200E4FF12056F7F961205787FD01205047F24
:0904E2009612056F7F9602057861
:1004EB007F9612056FE4FF1205787FD01205047F0B
:0904FB009612056F7F9602057848
:10001E00E5805407900013F0E4FF12056F7F9612EF
:10002E0005787FDC120504900013E064F06007E5AC
:10003E00805407F080F17F9612056FE4FF12057869
:0F004E007FC81205047F9612056F7F9612057802
:01005D002280
:1003C600E5805407900014F07F9612056FE4FF1243
:1003D60005787FC8120504900014E064F06007E514
:1003E600805407F080F1E4FF12056F7F96120578BE
:0F03F6007F961205047F9612056F7F9612057889
:0104050022D4
:10040600900008EEF0A3EFF0A3ECF0A3EDF0E4FF0C
:1004160012056F7F96120578900008A3E0FF12057B
:10042600047F9612056FE4FF12057890000AA3E098
:0E043600FF1205047F9612056F7F960205786F
:1004440090000CEEF0A3EFF0A3ECF0A3EDF07F9698
:1004540012056FE4FF12057890000CA3E0FF12056B
:1004640004E4FF12056F7F9612057890000EA3E056
:0E047400FF1205047F9612056F7F9602057831
:100555003096079000127401F022E4900012F02208
:1004B400E580540714600E24FD600C24FD600B24B9
:0E04C40007700A8005800002056512000E22F6
:10051B0012037412030B12055512000E7FC812053D
:06052B00041204B480FB81
:10037400C2DEE5A254CF4420F5A2E4F5D875F2011B
:1003840075F301F5F475DA4275DB4275DC42F5F973
:10039400F5E975D902900000F0900000F09000009B
:1003A400F0900000E0FD7C00E4FF12048290000065
:1003B400E0FD7C007F01120482D2DE53951F439638
:0203C400E02235
:100504007DA57C06ED1D70011C144C70F7EF1F7067
:06051400011E144E70EA06
:01051A0022BE
:10048200EF700DC2DEC374FF9DF5EAF5FAD2DE22EB
:10049200EFB4010DC2DEC374FF9DF5EBF5FBD2DEB6
:1004A20022EFB4020CC2DEC374FF9DF5ECF5FCD260
:0204B200DE2248
:09056F00EFFD7C007F0102048213
:09057800EFFD7C00E4FF020482A7
:03000B00020531BA
:10053100C0E0C083C082900010E004F0D082D0837C
:03054100D0E032D5
:03001B00020003DD
:0100030032CA
:0300630002000494
:0100040032C9
:10030B00E4900000F0A3F0A304F0E4A3F0A3F0A3A7
:10031B0074FFF0A37423F0A37401F0FB7A0079004F
:10032B00E4FF120066E4900000F0A3F0A304F0E4F5
:10033B00A3F0A304F0A374A9F0A3749AF0E4A3F0C0
:10034B007B017A0079007F01120066900002740134
:10035B00F0A3F0A3F0A37470F0A3E4F0A3F07B017F
:09036B007A0079007F02020066AD
:10006600AD07EDD3940240037F0122ED6003020049
:10007600FAC28C9000021202A6B40104D2A9800230
:10008600C2A99000011202A6B40104D2B98002C22C
:10009600B912028DFED3940340037F0222E58954F0
:1000A600FC4EF5899000031202A6FFB40103538E9D
:1000B6007FEF7003438E80EFB4020543890480030B
:1000C6005389FB9000041202A6B40105438F0180F8
:1000D60003538FFE9000051202D3E5F0F58C9000D5
:1000E600051202D3F58A9000071202A6B40102D2C5
:1000F6008C7F0022ED64016003020185C28E9000B0
:10010600021202A6B40104D2AB8002C2AB90000177
:100116001202A6B40104D2BB8002C2BB12028DFE3B
:10012600C3940340037F0222E58954CF4EF589909C
:1001360000031202A6FFB40103538EBFEF70034300
:100146008E40EFB4020543894080035389BF900077
:10015600041202A6B40105438F028003538FFD905B
:1001660000051202D3E5F0F58D9000051202D3F5D5
:100176008B9000071202A6B40102D28E7F0022EDF8
:1001860064027074538EEF9000021202A6B4010549
:1001960043AF04800353AFFB9000031202A6FED3C5
:1001A600940240037F0222EEB40103538EFB9000BB
:1001B600031202A67003438E049000031202A6B433
:1001C6000205438E088003538EF79000041202A6A0
:1001D600B40105438F048003538FFB900005120280
:1001E600D3FDACF0ECF5D68DD79000071202A6B47D
:0B01F6000103438E107F00227F0222D5
:03000000020201F8
:0C020100787FE4F6D8FD758120020248E9
:10028D00BB010689828A83E0225002E722BBFE026F
:09029D00E32289828A83E49322A2
:1002A600BB010CE58229F582E5833AF583E022500D
:1002B60006E92582F8E622BBFE06E92582F8E22257
:0D02C600E58229F582E5833AF583E4932271
:1002D300BB0110E58229F582E5833AF583E0F5F069
:1002E300A3E0225009E92582F886F008E622BBFE46
:1002F3000AE92582F8E2F5F008E222E5832AF5838C
:08030300E993F5F0A3E9932250
:10020D0002051BE493A3F8E493A34003F68001F2E7
:10021D0008DFF48029E493A3F85407240CC8C333F2
:10022D00C4540F4420C8834004F456800146F6DFC1
:10023D00E4800B0102040810204080900544E47E08
:10024D00019360BCA3FF543F30E509541FFEE493B6
:10025D00A360010ECF54C025E060A840B8E493A37D
:10026D00FAE493A3F8E493A3C8C582C8CAC583CAA8
:10027D00F0A3C8C582C8CAC583CADFE9DEE780BE60
:0105540000A6
:00000001FF
